{
  "contractName": "MethRec",
  "abi": [
    {
      "constant": true,
      "inputs": [
        {
          "internalType": "uint256",
          "name": "",
          "type": "uint256"
        }
      ],
      "name": "users",
      "outputs": [
        {
          "internalType": "uint256",
          "name": "id",
          "type": "uint256"
        },
        {
          "internalType": "string",
          "name": "name",
          "type": "string"
        },
        {
          "internalType": "string",
          "name": "data",
          "type": "string"
        },
        {
          "internalType": "string",
          "name": "allergies",
          "type": "string"
        },
        {
          "internalType": "string",
          "name": "date",
          "type": "string"
        },
        {
          "internalType": "uint256",
          "name": "pass",
          "type": "uint256"
        }
      ],
      "payable": false,
      "stateMutability": "view",
      "type": "function"
    },
    {
      "constant": false,
      "inputs": [
        {
          "internalType": "uint256",
          "name": "id",
          "type": "uint256"
        },
        {
          "internalType": "string",
          "name": "name",
          "type": "string"
        },
        {
          "internalType": "uint256",
          "name": "pass",
          "type": "uint256"
        }
      ],
      "name": "create_account",
      "outputs": [],
      "payable": false,
      "stateMutability": "nonpayable",
      "type": "function"
    },
    {
      "constant": true,
      "inputs": [
        {
          "internalType": "uint256",
          "name": "id",
          "type": "uint256"
        },
        {
          "internalType": "uint256",
          "name": "pass",
          "type": "uint256"
        }
      ],
      "name": "read",
      "outputs": [
        {
          "internalType": "uint256",
          "name": "",
          "type": "uint256"
        },
        {
          "internalType": "string",
          "name": "",
          "type": "string"
        },
        {
          "internalType": "string",
          "name": "data",
          "type": "string"
        },
        {
          "internalType": "string",
          "name": "allergies",
          "type": "string"
        },
        {
          "internalType": "string",
          "name": "date",
          "type": "string"
        }
      ],
      "payable": false,
      "stateMutability": "view",
      "type": "function"
    },
    {
      "constant": false,
      "inputs": [
        {
          "internalType": "uint256",
          "name": "id",
          "type": "uint256"
        },
        {
          "internalType": "string",
          "name": "data",
          "type": "string"
        },
        {
          "internalType": "string",
          "name": "allergies",
          "type": "string"
        },
        {
          "internalType": "string",
          "name": "date",
          "type": "string"
        },
        {
          "internalType": "uint256",
          "name": "pass",
          "type": "uint256"
        }
      ],
      "name": "add_data",
      "outputs": [],
      "payable": false,
      "stateMutability": "nonpayable",
      "type": "function"
    },
    {
      "constant": false,
      "inputs": [
        {
          "internalType": "uint256",
          "name": "id",
          "type": "uint256"
        },
        {
          "internalType": "uint256",
          "name": "pass",
          "type": "uint256"
        }
      ],
      "name": "destroy",
      "outputs": [],
      "payable": false,
      "stateMutability": "nonpayable",
      "type": "function"
    }
  ],
  "bytecode": "0x608060405234801561001057600080fd5b50611680806100206000396000f3fe608060405234801561001057600080fd5b50600436106100575760003560e01c80631a0b2a231461005c578063365b98b214610259578063750809971461045257806390b53c621461064e578063e3a940511461071d575b600080fd5b610257600480360360a081101561007257600080fd5b81019080803590602001909291908035906020019064010000000081111561009957600080fd5b8201836020820111156100ab57600080fd5b803590602001918460018302840111640100000000831117156100cd57600080fd5b91908080601f016020809104026020016040519081016040528093929190818152602001838380828437600081840152601f19601f8201169050808301925050505050505091929192908035906020019064010000000081111561013057600080fd5b82018360208201111561014257600080fd5b8035906020019184600183028401116401000000008311171561016457600080fd5b91908080601f016020809104026020016040519081016040528093929190818152602001838380828437600081840152601f19601f820116905080830192505050505050509192919290803590602001906401000000008111156101c757600080fd5b8201836020820111156101d957600080fd5b803590602001918460018302840111640100000000831117156101fb57600080fd5b91908080601f016020809104026020016040519081016040528093929190818152602001838380828437600081840152601f19601f82011690508083019250505050505050919291929080359060200190929190505050610755565b005b6102856004803603602081101561026f57600080fd5b8101908080359060200190929190505050610a9c565b604051808781526020018060200180602001806020018060200186815260200185810385528a818151815260200191508051906020019080838360005b838110156102dd5780820151818401526020810190506102c2565b50505050905090810190601f16801561030a5780820380516001836020036101000a031916815260200191505b50858103845289818151815260200191508051906020019080838360005b83811015610343578082015181840152602081019050610328565b50505050905090810190601f1680156103705780820380516001836020036101000a031916815260200191505b50858103835288818151815260200191508051906020019080838360005b838110156103a957808201518184015260208101905061038e565b50505050905090810190601f1680156103d65780820380516001836020036101000a031916815260200191505b50858103825287818151815260200191508051906020019080838360005b8381101561040f5780820151818401526020810190506103f4565b50505050905090810190601f16801561043c5780820380516001836020036101000a031916815260200191505b509a505050505050505050505060405180910390f35b6104886004803603604081101561046857600080fd5b810190808035906020019092919080359060200190929190505050610d45565b6040518086815260200180602001806020018060200180602001858103855289818151815260200191508051906020019080838360005b838110156104da5780820151818401526020810190506104bf565b50505050905090810190601f1680156105075780820380516001836020036101000a031916815260200191505b50858103845288818151815260200191508051906020019080838360005b83811015610540578082015181840152602081019050610525565b50505050905090810190601f16801561056d5780820380516001836020036101000a031916815260200191505b50858103835287818151815260200191508051906020019080838360005b838110156105a657808201518184015260208101905061058b565b50505050905090810190601f1680156105d35780820380516001836020036101000a031916815260200191505b50858103825286818151815260200191508051906020019080838360005b8381101561060c5780820151818401526020810190506105f1565b50505050905090810190601f1680156106395780820380516001836020036101000a031916815260200191505b50995050505050505050505060405180910390f35b61071b6004803603606081101561066457600080fd5b81019080803590602001909291908035906020019064010000000081111561068b57600080fd5b82018360208201111561069d57600080fd5b803590602001918460018302840111640100000000831117156106bf57600080fd5b91908080601f016020809104026020016040519081016040528093929190818152602001838380828437600081840152601f19601f8201169050808301925050505050505091929192908035906020019092919050505061110f565b005b6107536004803603604081101561073357600080fd5b810190808035906020019092919080359060200190929190505050611238565b005b600061076086611351565b90506107a16040518060400160405280600381526020017f20202b000000000000000000000000000000000000000000000000000000000081525086611416565b94506107e26040518060400160405280600381526020017f20202b000000000000000000000000000000000000000000000000000000000081525084611416565b925081600082815481106107f257fe5b9060005260206000209060060201600501541415610a26576108ca6000828154811061081a57fe5b90600052602060002090600602016002018054600181600116156101000203166002900480601f0160208091040260200160405190810160405280929190818152602001828054600181600116156101000203166002900480156108bf5780601f10610894576101008083540402835291602001916108bf565b820191906000526020600020905b8154815290600101906020018083116108a257829003601f168201915b505050505086611416565b600082815481106108d757fe5b906000526020600020906006020160020190805190602001906108fb9291906114de565b50836000828154811061090a57fe5b9060005260206000209060060201600301908051906020019061092e9291906114de565b506109ef6000828154811061093f57fe5b90600052602060002090600602016004018054600181600116156101000203166002900480601f0160208091040260200160405190810160405280929190818152602001828054600181600116156101000203166002900480156109e45780601f106109b9576101008083540402835291602001916109e4565b820191906000526020600020905b8154815290600101906020018083116109c757829003601f168201915b505050505084611416565b600082815481106109fc57fe5b90600052602060002090600602016004019080519060200190610a209291906114de565b50610a94565b6040517f08c379a00000000000000000000000000000000000000000000000000000000081526004018080602001828103825260128152602001807f496e636f72726563742070617373776f7264000000000000000000000000000081525060200191505060405180910390fd5b505050505050565b60008181548110610aa957fe5b9060005260206000209060060201600091509050806000015490806001018054600181600116156101000203166002900480601f016020809104026020016040519081016040528092919081815260200182805460018160011615610100020316600290048015610b5b5780601f10610b3057610100808354040283529160200191610b5b565b820191906000526020600020905b815481529060010190602001808311610b3e57829003601f168201915b505050505090806002018054600181600116156101000203166002900480601f016020809104026020016040519081016040528092919081815260200182805460018160011615610100020316600290048015610bf95780601f10610bce57610100808354040283529160200191610bf9565b820191906000526020600020905b815481529060010190602001808311610bdc57829003601f168201915b505050505090806003018054600181600116156101000203166002900480601f016020809104026020016040519081016040528092919081815260200182805460018160011615610100020316600290048015610c975780601f10610c6c57610100808354040283529160200191610c97565b820191906000526020600020905b815481529060010190602001808311610c7a57829003601f168201915b505050505090806004018054600181600116156101000203166002900480601f016020809104026020016040519081016040528092919081815260200182805460018160011615610100020316600290048015610d355780601f10610d0a57610100808354040283529160200191610d35565b820191906000526020600020905b815481529060010190602001808311610d1857829003601f168201915b5050505050908060050154905086565b60006060806060806000610d5888611351565b90508660008281548110610d6857fe5b90600052602060002090600602016005015414156110975760008181548110610d8d57fe5b90600052602060002090600602016000015460008281548110610dac57fe5b906000526020600020906006020160010160008381548110610dca57fe5b906000526020600020906006020160020160008481548110610de857fe5b906000526020600020906006020160030160008581548110610e0657fe5b9060005260206000209060060201600401838054600181600116156101000203166002900480601f016020809104026020016040519081016040528092919081815260200182805460018160011615610100020316600290048015610eac5780601f10610e8157610100808354040283529160200191610eac565b820191906000526020600020905b815481529060010190602001808311610e8f57829003601f168201915b50505050509350828054600181600116156101000203166002900480601f016020809104026020016040519081016040528092919081815260200182805460018160011615610100020316600290048015610f485780601f10610f1d57610100808354040283529160200191610f48565b820191906000526020600020905b815481529060010190602001808311610f2b57829003601f168201915b50505050509250818054600181600116156101000203166002900480601f016020809104026020016040519081016040528092919081815260200182805460018160011615610100020316600290048015610fe45780601f10610fb957610100808354040283529160200191610fe4565b820191906000526020600020905b815481529060010190602001808311610fc757829003601f168201915b50505050509150808054600181600116156101000203166002900480601f0160208091040260200160405190810160405280929190818152602001828054600181600116156101000203166002900480156110805780601f1061105557610100808354040283529160200191611080565b820191906000526020600020905b81548152906001019060200180831161106357829003601f168201915b505050505090509550955095509550955050611105565b6040517f08c379a00000000000000000000000000000000000000000000000000000000081526004018080602001828103825260128152602001807f496e636f72726563742070617373776f7264000000000000000000000000000081525060200191505060405180910390fd5b9295509295909350565b60606040518060200160405280600081525090506060604051806020016040528060008152509050606060405180602001604052806000815250905060006040518060c0016040528088815260200187815260200185815260200184815260200183815260200186815250908060018154018082558091505090600182039060005260206000209060060201600090919290919091506000820151816000015560208201518160010190805190602001906111cb92919061155e565b5060408201518160020190805190602001906111e892919061155e565b50606082015181600301908051906020019061120592919061155e565b50608082015181600401908051906020019061122292919061155e565b5060a08201518160050155505050505050505050565b600061124383611351565b9050816000828154811061125357fe5b90600052602060002090600602016005015414156112de576000818154811061127857fe5b906000526020600020906006020160008082016000905560018201600061129f91906115de565b6002820160006112af91906115de565b6003820160006112bf91906115de565b6004820160006112cf91906115de565b6005820160009055505061134c565b6040517f08c379a00000000000000000000000000000000000000000000000000000000081526004018080602001828103825260128152602001807f496e636f72726563742070617373776f7264000000000000000000000000000081525060200191505060405180910390fd5b505050565b600080600090505b6000805490508110156113a257826000828154811061137457fe5b90600052602060002090600602016000015414156113955780915050611411565b8080600101915050611359565b506040517f08c379a00000000000000000000000000000000000000000000000000000000081526004018080602001828103825260138152602001807f5573657220646f6573206e6f742065786973740000000000000000000000000081525060200191505060405180910390fd5b919050565b606082826040516020018083805190602001908083835b60208310611450578051825260208201915060208101905060208303925061142d565b6001836020036101000a03801982511681845116808217855250505050505090500182805190602001908083835b602083106114a1578051825260208201915060208101905060208303925061147e565b6001836020036101000a03801982511681845116808217855250505050505090500192505050604051602081830303815290604052905092915050565b828054600181600116156101000203166002900490600052602060002090601f016020900481019282601f1061151f57805160ff191683800117855561154d565b8280016001018555821561154d579182015b8281111561154c578251825591602001919060010190611531565b5b50905061155a9190611626565b5090565b828054600181600116156101000203166002900490600052602060002090601f016020900481019282601f1061159f57805160ff19168380011785556115cd565b828001600101855582156115cd579182015b828111156115cc5782518255916020019190600101906115b1565b5b5090506115da9190611626565b5090565b50805460018160011615610100020316600290046000825580601f106116045750611623565b601f0160209004906000526020600020908101906116229190611626565b5b50565b61164891905b8082111561164457600081600090555060010161162c565b5090565b9056fea265627a7a72315820a60f5b8294941867f1113fa9101049270f1c9d9390028e852bd6c834818c64d564736f6c63430005100032",
  "source": "pragma solidity ^0.5.16;\ncontract MethRec{\n    struct User {\n        uint id;\n        string name;\n        string data;\n        string allergies;\n        string date;\n        uint pass;\n\n    }\n\n    User[] public users;\n\n\n    function create_account(uint id,string memory name,uint pass) public {\n       string memory data=\"\";\n       string memory allergies=\"\";\n       string memory date=\"\";\n       users.push(User(id,name,data,allergies,date,pass));\n\n   }\n\n    function read(uint id,uint pass) view public returns(uint,string memory,string memory data,string memory allergies,string memory date){\n       uint i=find(id);\n       if(users[i].pass==pass){\n       return(users[i].id,users[i].name,users[i].data,users[i].allergies,users[i].date);\n       }\n       else{\n       revert(\"Incorrect password\");\n       }\n\n    }\n\n    function add_data(uint id,string memory data,string memory allergies,string memory date,uint pass) public {\n\n      uint i=find(id);\n      data=concat(\"  +\",data);\n      date=concat(\"  +\",date);\n      if(users[i].pass==pass){\n      users[i].data=concat(users[i].data,data);\n      users[i].allergies=allergies;\n      users[i].date=concat(users[i].date,date);\n      }\n      else{\n      revert(\"Incorrect password\");\n      }\n\n\n    }\n\n\n    function destroy(uint id,uint pass) public{\n        uint i=find(id);\n         if(users[i].pass==pass){\n        delete users[i];\n         }\n         else{\n         revert(\"Incorrect password\");\n         }\n    }\n\n    function find(uint id) view internal returns(uint){\n         for (uint i=0;i<users.length;i++){\n            if(users[i].id==id){\n                return i;\n            }\n        }\n        revert('User does not exist');\n    }\n\n function concat(string memory a, string memory b) internal pure returns (string memory) {\n\n    return string(abi.encodePacked(a, b));\n\n}\n\n\n}\n",
  "sourcePath": "/home/jagneto/Project/MethRec/contracts/MethRec.sol",
  "compiler": {
    "name": "solc",
    "version": "0.5.16+commit.9c3226ce.Emscripten.clang"
  },
  "schemaVersion": "3.1.0",
  "updatedAt": "2020-04-30T22:16:42.106Z",
  "networkType": "ethereum",
  "devdoc": {
    "methods": {}
  },
  "userdoc": {
    "methods": {}
  }
}